{
  "_format": "hh-sol-artifact-1",
  "contractName": "TokenExchanger",
  "sourceName": "contracts/TokenExchanger.sol",
  "abi": [
    {
      "inputs": [
        {
          "internalType": "contract IERC20",
          "name": "_daoToken",
          "type": "address"
        },
        {
          "internalType": "contract IERC20",
          "name": "_stableCoin",
          "type": "address"
        }
      ],
      "stateMutability": "nonpayable",
      "type": "constructor"
    },
    {
      "inputs": [],
      "name": "creationTime",
      "outputs": [
        {
          "internalType": "uint256",
          "name": "",
          "type": "uint256"
        }
      ],
      "stateMutability": "view",
      "type": "function"
    },
    {
      "inputs": [],
      "name": "daoToken",
      "outputs": [
        {
          "internalType": "contract IERC20",
          "name": "",
          "type": "address"
        }
      ],
      "stateMutability": "view",
      "type": "function"
    },
    {
      "inputs": [
        {
          "internalType": "uint256",
          "name": "amount",
          "type": "uint256"
        }
      ],
      "name": "getAmountWithInterest",
      "outputs": [
        {
          "internalType": "uint256",
          "name": "",
          "type": "uint256"
        }
      ],
      "stateMutability": "view",
      "type": "function"
    },
    {
      "inputs": [],
      "name": "interestRate",
      "outputs": [
        {
          "internalType": "uint8",
          "name": "",
          "type": "uint8"
        }
      ],
      "stateMutability": "view",
      "type": "function"
    },
    {
      "inputs": [
        {
          "internalType": "uint256",
          "name": "amount",
          "type": "uint256"
        }
      ],
      "name": "redeemDaoTokens",
      "outputs": [],
      "stateMutability": "nonpayable",
      "type": "function"
    },
    {
      "inputs": [],
      "name": "stableCoin",
      "outputs": [
        {
          "internalType": "contract IERC20",
          "name": "",
          "type": "address"
        }
      ],
      "stateMutability": "view",
      "type": "function"
    }
  ],
  "bytecode": "0x61010060405234801561001157600080fd5b506040516106613803806106618339810160408190526100309161007b565b6001600160a01b03808316608052811660a05261005062f0c29f426100ae565b60c0525050600560e0526100d5565b80516001600160a01b038116811461007657600080fd5b919050565b6000806040838503121561008e57600080fd5b6100978361005f565b91506100a56020840161005f565b90509250929050565b818103818111156100cf57634e487b7160e01b600052601160045260246000fd5b92915050565b60805160a05160c05160e05161053361012e6000396000818160b001526101a6015260008181610146015261017001526000818160e901528181610212015261037d015260008181606c015261030501526105336000f3fe608060405234801561001057600080fd5b50600436106100625760003560e01c80634914b030146100675780637c3a00fd146100ab578063992642e5146100e4578063a970ca761461010b578063ca0e93581461012c578063d8270dce14610141575b600080fd5b61008e7f000000000000000000000000000000000000000000000000000000000000000081565b6040516001600160a01b0390911681526020015b60405180910390f35b6100d27f000000000000000000000000000000000000000000000000000000000000000081565b60405160ff90911681526020016100a2565b61008e7f000000000000000000000000000000000000000000000000000000000000000081565b61011e610119366004610427565b610168565b6040519081526020016100a2565b61013f61013a366004610427565b6101f4565b005b61011e7f000000000000000000000000000000000000000000000000000000000000000081565b6000806101957f000000000000000000000000000000000000000000000000000000000000000042610456565b9050600063bc180c38826101cc60ff7f0000000000000000000000000000000000000000000000000000000000000000168761046f565b6101d6919061046f565b6101e09190610486565b90506101ec81856104a8565b949350505050565b6101fd81610168565b6040516370a0823160e01b81523060048201527f00000000000000000000000000000000000000000000000000000000000000006001600160a01b0316906370a0823190602401602060405180830381865afa158015610261573d6000803e3d6000fd5b505050506040513d601f19601f8201168201806040525081019061028591906104bb565b10156102e35760405162461bcd60e51b815260206004820152602360248201527f496e73756666696369656e742066756e647320696e207468652065786368616e60448201526233b2b960e91b606482015260840160405180910390fd5b6040516323b872dd60e01b8152336004820152306024820152604481018290527f00000000000000000000000000000000000000000000000000000000000000006001600160a01b0316906323b872dd906064016020604051808303816000875af1158015610356573d6000803e3d6000fd5b505050506040513d601f19601f8201168201806040525081019061037a91906104d4565b507f00000000000000000000000000000000000000000000000000000000000000006001600160a01b031663a9059cbb336103b484610168565b6040516001600160e01b031960e085901b1681526001600160a01b03909216600483015260248201526044016020604051808303816000875af11580156103ff573d6000803e3d6000fd5b505050506040513d601f19601f8201168201806040525081019061042391906104d4565b5050565b60006020828403121561043957600080fd5b5035919050565b634e487b7160e01b600052601160045260246000fd5b8181038181111561046957610469610440565b92915050565b808202811582820484141761046957610469610440565b6000826104a357634e487b7160e01b600052601260045260246000fd5b500490565b8082018082111561046957610469610440565b6000602082840312156104cd57600080fd5b5051919050565b6000602082840312156104e657600080fd5b815180151581146104f657600080fd5b939250505056fea264697066735822122020de28379cd3e6c10add52acbd9f74d8fb187b7d3183c04f0279c7b20f6d506c64736f6c63430008110033",
  "linkReferences": {},
  "deployedLinkReferences": {}
}